{"abi":[{"type":"function","name":"cancelSplit","inputs":[{"name":"_splitId","type":"bytes32","internalType":"bytes32"}],"outputs":[],"stateMutability":"nonpayable"},{"type":"function","name":"contribute","inputs":[{"name":"_splitId","type":"bytes32","internalType":"bytes32"},{"name":"_amount","type":"uint256","internalType":"uint256"}],"outputs":[],"stateMutability":"nonpayable"},{"type":"function","name":"createSplit","inputs":[{"name":"_purpose","type":"string","internalType":"string"},{"name":"_tokenAddress","type":"address","internalType":"address"},{"name":"_totalAmount","type":"uint256","internalType":"uint256"},{"name":"_numberOfParticipants","type":"uint256","internalType":"uint256"},{"name":"_durationInDays","type":"uint256","internalType":"uint256"}],"outputs":[{"name":"","type":"bytes32","internalType":"bytes32"}],"stateMutability":"nonpayable"},{"type":"function","name":"getAmountPerParticipant","inputs":[{"name":"_splitId","type":"bytes32","internalType":"bytes32"}],"outputs":[{"name":"","type":"uint256","internalType":"uint256"}],"stateMutability":"view"},{"type":"function","name":"getSplitDetails","inputs":[{"name":"_splitId","type":"bytes32","internalType":"bytes32"}],"outputs":[{"name":"initiator","type":"address","internalType":"address"},{"name":"purpose","type":"string","internalType":"string"},{"name":"tokenAddress","type":"address","internalType":"address"},{"name":"totalAmount","type":"uint256","internalType":"uint256"},{"name":"numberOfParticipants","type":"uint256","internalType":"uint256"},{"name":"amountPerParticipant","type":"uint256","internalType":"uint256"},{"name":"deadline","type":"uint256","internalType":"uint256"},{"name":"totalContributed","type":"uint256","internalType":"uint256"},{"name":"isActive","type":"bool","internalType":"bool"},{"name":"isCancelled","type":"bool","internalType":"bool"}],"stateMutability":"view"},{"type":"function","name":"hasContributed","inputs":[{"name":"_splitId","type":"bytes32","internalType":"bytes32"},{"name":"_participant","type":"address","internalType":"address"}],"outputs":[{"name":"","type":"bool","internalType":"bool"}],"stateMutability":"view"},{"type":"function","name":"splits","inputs":[{"name":"","type":"bytes32","internalType":"bytes32"}],"outputs":[{"name":"initiator","type":"address","internalType":"address"},{"name":"purpose","type":"string","internalType":"string"},{"name":"tokenAddress","type":"address","internalType":"address"},{"name":"totalAmount","type":"uint256","internalType":"uint256"},{"name":"numberOfParticipants","type":"uint256","internalType":"uint256"},{"name":"amountPerParticipant","type":"uint256","internalType":"uint256"},{"name":"deadline","type":"uint256","internalType":"uint256"},{"name":"totalContributed","type":"uint256","internalType":"uint256"},{"name":"isActive","type":"bool","internalType":"bool"},{"name":"isCancelled","type":"bool","internalType":"bool"}],"stateMutability":"view"},{"type":"function","name":"withdrawFunds","inputs":[{"name":"_splitId","type":"bytes32","internalType":"bytes32"}],"outputs":[],"stateMutability":"nonpayable"},{"type":"event","name":"ContributionMade","inputs":[{"name":"splitId","type":"bytes32","indexed":true,"internalType":"bytes32"},{"name":"contributor","type":"address","indexed":true,"internalType":"address"},{"name":"amount","type":"uint256","indexed":false,"internalType":"uint256"}],"anonymous":false},{"type":"event","name":"FundsReturned","inputs":[{"name":"splitId","type":"bytes32","indexed":true,"internalType":"bytes32"},{"name":"participant","type":"address","indexed":true,"internalType":"address"},{"name":"amount","type":"uint256","indexed":false,"internalType":"uint256"}],"anonymous":false},{"type":"event","name":"SplitCancelled","inputs":[{"name":"splitId","type":"bytes32","indexed":true,"internalType":"bytes32"}],"anonymous":false},{"type":"event","name":"SplitClosed","inputs":[{"name":"splitId","type":"bytes32","indexed":true,"internalType":"bytes32"}],"anonymous":false},{"type":"event","name":"SplitCreated","inputs":[{"name":"splitId","type":"bytes32","indexed":true,"internalType":"bytes32"},{"name":"initiator","type":"address","indexed":true,"internalType":"address"},{"name":"purpose","type":"string","indexed":false,"internalType":"string"},{"name":"tokenAddress","type":"address","indexed":false,"internalType":"address"},{"name":"totalAmount","type":"uint256","indexed":false,"internalType":"uint256"},{"name":"amountPerParticipant","type":"uint256","indexed":false,"internalType":"uint256"},{"name":"deadline","type":"uint256","indexed":false,"internalType":"uint256"}],"anonymous":false},{"type":"error","name":"ReentrancyGuardReentrantCall","inputs":[]},{"type":"error","name":"SafeERC20FailedOperation","inputs":[{"name":"token","type":"address","internalType":"address"}]}],"bytecode":{"object":"0x6080604052600160025534801561001557600080fd5b5060016000556112868061002a6000396000f3fe608060405234801561001057600080fd5b50600436106100885760003560e01c8063b95396421161005b578063b953964214610104578063d8a3950e14610117578063f83840751461013a578063fd1c49a51461014d57600080fd5b80636e2b54ee1461008d5780637dd540ed146100a257806385905aa0146100c8578063a72bc064146100db575b600080fd5b6100a061009b366004610de7565b610170565b005b6100b56100b0366004610e32565b61033e565b6040519081526020015b60405180910390f35b6100a06100d6366004610de7565b6105e6565b6100ee6100e9366004610de7565b610717565b6040516100bf9a99989796959493929190610f54565b6100a0610112366004610fbf565b610809565b61012a610125366004610fe1565b610a59565b60405190151581526020016100bf565b6100ee610148366004610de7565b610a89565b6100b561015b366004610de7565b60009081526001602052604090206005015490565b610178610baf565b6000818152600160205260409020600a81015460ff1615806101a35750600a810154610100900460ff165b806101b15750806006015442115b6101fa5760405162461bcd60e51b815260206004820152601560248201527453706c6974206973207374696c6c2061637469766560581b60448201526064015b60405180910390fd5b33600090815260098201602052604090205460ff1661025b5760405162461bcd60e51b815260206004820152601b60248201527f4e6f20636f6e747269627574696f6e20746f207769746864726177000000000060448201526064016101f1565b336000908152600882016020526040902054806102b15760405162461bcd60e51b81526020600482015260146024820152734e6f2066756e647320746f20776974686472617760601b60448201526064016101f1565b33600090815260088301602052604081208190556007830180548392906102d9908490611023565b909155505060028201546001600160a01b03166102f7813384610bd9565b604051828152339085907f19c461120da7413ef05cba4758b12114cd30cf1613673cebf1cc5127522c79b19060200160405180910390a350505061033b6001600055565b50565b600080841161039b5760405162461bcd60e51b815260206004820152602360248201527f546f74616c20616d6f756e74206d75737420626520677265617465722074686160448201526206e20360ec1b60648201526084016101f1565b600183116104015760405162461bcd60e51b815260206004820152602d60248201527f4e756d626572206f66207061727469636970616e7473206d757374206265206760448201526c726561746572207468616e203160981b60648201526084016101f1565b6001600160a01b03851661044f5760405162461bcd60e51b8152602060048201526015602482015274496e76616c696420746f6b656e206164647265737360581b60448201526064016101f1565b6000821161049f5760405162461bcd60e51b815260206004820152601f60248201527f4475726174696f6e206d7573742062652067726561746572207468616e20300060448201526064016101f1565b600280546040805160208082018490523360601b6bffffffffffffffffffffffff1916828401524260548084019190915283518084039091018152607490920190925280519101209160006104f383611036565b9091555050600081815260016020819052604090912080546001600160a01b0319163317815590810161052689826110d7565b506002810180546001600160a01b0319166001600160a01b038916179055600381018690556004810185905561055c8587611197565b600582015561056e84620151806111b9565b61057890426111d0565b60068201819055600a8201805460ff19166001179055600060078301556005820154604051339285927f56b7461ee7a2a669cfea63c4933e5ef49885031af5c01c46124a85cf4d35fa88926105d3928e928e928e92906111e3565b60405180910390a3509695505050505050565b600081815260016020526040902080546001600160a01b031633146106595760405162461bcd60e51b815260206004820152602360248201527f4f6e6c7920696e69746961746f722063616e2063616e63656c207468652073706044820152621b1a5d60ea1b60648201526084016101f1565b600a81015460ff1661067d5760405162461bcd60e51b81526004016101f190611223565b600a810154610100900460ff16156106d75760405162461bcd60e51b815260206004820152601a60248201527f53706c697420697320616c72656164792063616e63656c6c656400000000000060448201526064016101f1565b600a8101805461ffff191661010017905560405182907faf310da7da519f00de3db22b2d8f45ddab47aa4382f36ebad0db3ba69fca5ec790600090a25050565b6001602081905260009182526040909120805491810180546001600160a01b03909316926107449061104f565b80601f01602080910402602001604051908101604052809291908181526020018280546107709061104f565b80156107bd5780601f10610792576101008083540402835291602001916107bd565b820191906000526020600020905b8154815290600101906020018083116107a057829003601f168201915b50505050600283015460038401546004850154600586015460068701546007880154600a9098015496976001600160a01b03909516969395509193909260ff808216916101009004168a565b610811610baf565b6000828152600160205260409020600a81015460ff166108435760405162461bcd60e51b81526004016101f190611223565b600a810154610100900460ff161561089d5760405162461bcd60e51b815260206004820152601860248201527f53706c697420686173206265656e2063616e63656c6c6564000000000000000060448201526064016101f1565b33600090815260098201602052604090205460ff16156108f55760405162461bcd60e51b8152602060048201526013602482015272105b1c9958591e4818dbdb9d1c9a589d5d1959606a1b60448201526064016101f1565b80600601544211156109495760405162461bcd60e51b815260206004820152601960248201527f53706c697420646561646c696e6520686173207061737365640000000000000060448201526064016101f1565b8060050154821461099c5760405162461bcd60e51b815260206004820152601d60248201527f496e636f727265637420636f6e747269627574696f6e20616d6f756e7400000060448201526064016101f1565b60028101546001600160a01b03166109b681333086610c3d565b3360009081526008830160209081526040808320869055600985019091528120805460ff191660011790556007830180548592906109f59084906111d0565b9091555050604051838152339085907fb736b18814da81a1581cd71e835c12a580034bd300493d2c7a455ce69a50f7a09060200160405180910390a38160030154826007015410610a4957610a4984610c7c565b5050610a556001600055565b5050565b60008281526001602090815260408083206001600160a01b038516845260090190915290205460ff165b92915050565b600081815260016020819052604082208054600282015460038301546004840154600585015460068601546007870154600a880154988801805460609a8c9a8b9a8b9a8b9a8b9a8b9a8b9a8b9a96996001600160a01b0396871699909896909516969395929491939092909160ff80831692610100900416908990610b0d9061104f565b80601f0160208091040260200160405190810160405280929190818152602001828054610b399061104f565b8015610b865780601f10610b5b57610100808354040283529160200191610b86565b820191906000526020600020905b815481529060010190602001808311610b6957829003601f168201915b505050505098509a509a509a509a509a509a509a509a509a509a50509193959799509193959799565b600260005403610bd257604051633ee5aeb560e01b815260040160405180910390fd5b6002600055565b6040516001600160a01b03838116602483015260448201839052610c3891859182169063a9059cbb906064015b604051602081830303815290604052915060e01b6020820180516001600160e01b038381831617835250505050610d76565b505050565b6040516001600160a01b038481166024830152838116604483015260648201839052610c769186918216906323b872dd90608401610c06565b50505050565b6000818152600160205260409020600a81015460ff16610cae5760405162461bcd60e51b81526004016101f190611223565b806003015481600701541015610d145760405162461bcd60e51b815260206004820152602560248201527f4e6f7420616c6c207061727469636970616e7473206861766520636f6e747269604482015264189d5d195960da1b60648201526084016101f1565b600a8101805460ff191690556002810154815460038301546001600160a01b0392831692610d46928492911690610bd9565b60405183907fd25d1a77d2b4f254d7b997f727470534edfda6081088a35a79b1046fb4606ac790600090a2505050565b600080602060008451602086016000885af180610d99576040513d6000823e3d81fd5b50506000513d91508115610db1578060011415610dbe565b6001600160a01b0384163b155b15610c7657604051635274afe760e01b81526001600160a01b03851660048201526024016101f1565b600060208284031215610df957600080fd5b5035919050565b634e487b7160e01b600052604160045260246000fd5b80356001600160a01b0381168114610e2d57600080fd5b919050565b600080600080600060a08688031215610e4a57600080fd5b853567ffffffffffffffff80821115610e6257600080fd5b818801915088601f830112610e7657600080fd5b813581811115610e8857610e88610e00565b604051601f8201601f19908116603f01168101908382118183101715610eb057610eb0610e00565b816040528281528b6020848701011115610ec957600080fd5b826020860160208301376000602084830101528099505050505050610ef060208701610e16565b94979496505050506040830135926060810135926080909101359150565b6000815180845260005b81811015610f3457602081850181015186830182015201610f18565b506000602082860101526020601f19601f83011685010191505092915050565b6001600160a01b038b8116825261014060208301819052600091610f7a8483018e610f0e565b9b16604084015250506060810197909752608087019590955260a086019390935260c085019190915260e0840152151561010083015215156101209091015292915050565b60008060408385031215610fd257600080fd5b50508035926020909101359150565b60008060408385031215610ff457600080fd5b8235915061100460208401610e16565b90509250929050565b634e487b7160e01b600052601160045260246000fd5b81810381811115610a8357610a8361100d565b6000600182016110485761104861100d565b5060010190565b600181811c9082168061106357607f821691505b60208210810361108357634e487b7160e01b600052602260045260246000fd5b50919050565b601f821115610c3857600081815260208120601f850160051c810160208610156110b05750805b601f850160051c820191505b818110156110cf578281556001016110bc565b505050505050565b815167ffffffffffffffff8111156110f1576110f1610e00565b611105816110ff845461104f565b84611089565b602080601f83116001811461113a57600084156111225750858301515b600019600386901b1c1916600185901b1785556110cf565b600085815260208120601f198616915b828110156111695788860151825594840194600190910190840161114a565b50858210156111875787850151600019600388901b60f8161c191681555b5050505050600190811b01905550565b6000826111b457634e487b7160e01b600052601260045260246000fd5b500490565b8082028115828204841417610a8357610a8361100d565b80820180821115610a8357610a8361100d565b60a0815260006111f660a0830188610f0e565b6001600160a01b039690961660208301525060408101939093526060830191909152608090910152919050565b60208082526013908201527253706c6974206973206e6f742061637469766560681b60408201526060019056fea2646970667358221220b2008b73edbe72117ece8a7380216d2a7c4679657707a5369c2595658cae24eb64736f6c63430008140033","linkReferences":{}},"methodIdentifiers":{"cancelSplit(bytes32)":"85905aa0","contribute(bytes32,uint256)":"b9539642","createSplit(string,address,uint256,uint256,uint256)":"7dd540ed","getAmountPerParticipant(bytes32)":"fd1c49a5","getSplitDetails(bytes32)":"f8384075","hasContributed(bytes32,address)":"d8a3950e","splits(bytes32)":"a72bc064","withdrawFunds(bytes32)":"6e2b54ee"},"id":9}